:020000040800F2
:10000000E0090020050100086D1F00086F1F0008AF
:10001000771F00087B1F00087F1F000800000000FA
:10002000000000000000000000000000831F000826
:10003000851F000800000000871F0008891F0008B6
:100040001F0100081F0100081F0100088720000889
:100050001F0100081F0100084B50000875500008E0
:100060001F0100081F0100081F0100081F010008F0
:100070001F0100081F0100081F0100081F010008E0
:100080001F0100081F0100081F0100081F010008D0
:100090001F0100081F0100081F0100089920000827
:1000A0001F0100081F0100081F0100081F010008B0
:1000B0001F0100083D2000081F0100081F01000863
:1000C0001F0100081F0100081F0100081F01000890
:1000D0001F010008931F0008CB1F0008052000081F
:1000E0001F0100081F0100081F010008DFF80CD0E5
:1000F00005F072FF004800476D290008E009002064
:10010000704700000648804706480047FEE7FEE7C4
:10011000FEE7FEE7FEE7FEE7FEE7FEE7FEE7FEE7B7
:1001200007020008ED0000080CB5002001900090C7
:100130006C48006840F480306A49086000BF694834
:10014000006800F4003000900198401C0190009875
:1001500018B90198B0F5A06FF1D16248006800F4B9
:10016000003010B10120009001E0002000900098C4
:10017000012843D15C48006840F010005A490860EB
:100180000846006820F0030008600846006840F058
:100190000200086053484068524948600846406879
:1001A00048600846406840F48060486008464068FF
:1001B00020F47C1048600846406840F4E81048602D
:1001C0000846006840F08070086000BF454800683D
:1001D00000F000700028F9D04248406820F0030089
:1001E000404948600846406840F00200486000BF4F
:1001F0003C48406800F00C000828F9D10CBD10B54F
:10020000FFF792FF10BD10B53648006840F00100BE
:10021000344908600846406834490840314948601C
:1002200008460068324908402E49086008460068C0
:1002300020F4802008600846406820F4FE004860F2
:100240004FF41F008860FFF7DAFF4FF00060294984
:10025000086010BD10B5002100200022214B5B6812
:1002600003F00C0121B1042906D0082928D107E0A8
:10027000214B224C236027E01F4B204C236023E0BE
:10028000184B5B6803F47010164B5B6803F4803204
:10029000022303EB904022B9194B4343174C2360D0
:1002A0000DE0104B5B6803F4003323B1144B434360
:1002B000124C236003E0104B4343104C236003E0D7
:1002C0000D4B0E4C236000BF00BF064B5B68C3F3B1
:1002D00003130C4CE15C094B1B68CB40074C2360BB
:1002E00010BD000000100240002002400000FFF896
:1002F000FFFFF6FE08ED00E000127A00000000208B
:1003000000093D000400002031490143314A1160D9
:10031000704770B5002100230F22C47804B32D4C20
:10032000246804F4E064C4F5E064210AC1F1040324
:10033000CA40447804FA03F1847814402143090147
:10034000254C0678A155047804F01F050124AC4023
:1003500005786D11AD0005F1E025C5F8004109E013
:10036000047804F01F050124AC401C4D067876117A
:1003700045F8264070BD1A4A0A400243154B1B1F20
:100380001A60704739B1134A121D12680243114BAB
:100390001B1D1A6006E00F4A121D126882430D4BA6
:1003A0001B1D1A607047042808D14FF0E02109692D
:1003B00041F004014FF0E022116107E04FF0E0212D
:1003C000096921F004014FF0E0221161704700003B
:1003D0000000FA050CED00E000E400E080E100E040
:1003E00080FFFF1F002044490860091D0860091DA7
:1003F0000860091D086041483F4914310860704792
:1004000000213D498279002A3AD00A4612680368E1
:100410009A430B461A600A1D126803689A430B1D23
:100420001A60027911440A6803681A430A60324A62
:100430000832126803689A432F4B08331A601A1D5A
:10044000126803689A432C4B0C331A604279102AC5
:100450000ED11A1F126803681A43274B08331A601B
:100460001A1D126803681A43234B0C331A600DE0FF
:100470002149427911440A6803681A430A6005E079
:10048000027911440A6803689A430A6070470021A0
:10049000016001710C214171002181717047164981
:1004A000103109680143144A103211607047014647
:1004B0000020114A143212680A400AB1012000E0FB
:1004C000002070470C491431086070470146002035
:1004D0000022094B1B6803EA0102074B14331B6817
:1004E0000B4013B10AB1012000E00020704702491F
:1004F000143108607047000000040140FFFF0F0046
:1005000010B50446CC48844208D10121042000F0F3
:100510002DFB0021042000F029FB46E0C74884425F
:1005200008D10121082000F021FB0021082000F063
:100530001DFB3AE0C248844208D10121102000F09E
:1005400015FB0021102000F011FB2EE0BD48844275
:1005500008D10121202000F009FB0021202000F01B
:1005600005FB22E0B848844208D10121402000F078
:10057000FDFA0021402000F0F9FA16E0B348844269
:1005800008D10121802000F0F1FA0021802000F044
:10059000EDFA0AE0AE48844207D10121801500F04F
:1005A000E5FA0021A01500F0E1FA10BD10B5012117
:1005B000084600F0DBFA0021012000F0D7FA10BD58
:1005C0002DE9F041024600250026002000230024EA
:1005D000002791F803C00CF00F0591F803C00CF050
:1005E000100CBCF1000F03D091F802C04CEA0505D5
:1005F00091F800C0BCF1000F31D0146800202BE04E
:100600004FF0010C0CFA00F3B1F800C00CEA03063D
:100610009E4220D183004FF00F0C0CFA03F7BC432D
:1006200005FA03FC4CEA040491F803C0BCF1280F5E
:1006300006D14FF0010C0CFA00FCC2F814C00AE01D
:1006400091F803C0BCF1480F05D14FF0010C0CFA32
:1006500000FCC2F810C0401C0828D1D31460B1F8C7
:1006600000C0BCF1FF0F34DD546800202EE000F123
:10067000080C4FF0010808FA0CF3B1F800C00CEABE
:1006800003069E4221D183004FF00F0C0CFA03F7B2
:10069000BC4305FA03FC4CEA040491F803C0BCF126
:1006A000280F05D100F1080C08FA0CF8C2F81480E4
:1006B00091F803C0BCF1480F07D100F1080C4FF0CE
:1006C000010808FA0CF8C2F81080401C0828CED3A4
:1006D0005460BDE8F0814FF6FF7101800221817006
:1006E0000421C17070470246002093680B400BB193
:1006F000012000E0002070470146886880B2704702
:1007000002460020D3680B400BB1012000E000201E
:1007100070470146C86880B2704701617047416107
:1007200070470AB1016100E041617047C1607047E4
:100730004FF480320A4382618161826182698269F9
:10074000704702460020434B18684FF680731840EC
:1007500040EA021008433F4B186070473E49C861A9
:100760007047F0B50A46002300240021002500F060
:100770000046B6F1004F02D1364EF16901E0354E28
:100780007168C0F3034583B200F44016B6F5401F0C
:1007900008D121F070612F4E766826F070662D4FDB
:1007A0007E6012E000F48016B6F5801F06D10326A5
:1007B00006FA05F4A14341F0706106E0460D3601EA
:1007C00003FA06F6B14341F0706122B1460D3601DD
:1007D00003FA06F6314300F00046B6F1004F02D1AD
:1007E0001C4EF16101E01B4E7160F0BD30B500227E
:1007F0008B071C0F0F2303FA04F2164B08338C10DF
:1008000053F824309343134C08348D1044F82530AA
:1008100023468C1053F824308C07240F00FA04F47C
:1008200023430C4C08348D1044F8253030BD0A4960
:10083000DC3108607047000000080140000C0140F6
:10084000001001400014014000180140001C01404C
:10085000002001400000014000002042DF48006805
:1008600040F00100DD49086008464068DC49084066
:10087000DA49486008460068DA490840D749086004
:100880000846006820F4802008600846406820F48C
:10089000FE0048604FF41F0088607047CF49096828
:1008A00021F48031CD4A11601146096821F480217C
:1008B0001160B0F5803F03D0B0F5802F0ED106E077
:1008C000C649096841F48031C44A116007E0C34950
:1008D000096841F4A021C14A116000E000BF00BFD7
:1008E000704710B501460022002300204A11012A5A
:1008F00002D1BA4C236806E0022A02D1B74C236A1F
:1009000001E0B64C636A01F01F02012494401C40D0
:100910000CB1012000E0002010BD38B5002000908F
:100920000024002500BF3120FFF7DBFF05460098BB
:10093000401C00900098B0F5A06F01D0002DF2D0BF
:100940003120FFF7CEFF08B1012400E0002420464B
:1009500038BD01460020A14A106820F0F80040EAA6
:10096000C10010607047A04908607047024600202F
:100970009A4B586820F47C1042EA01031843974BC5
:100980005860704798490866704701460020934AAE
:10099000506820F003000843506070478F4840685B
:1009A00000F00C007047014600208C4A506820F08F
:1009B000F00008435060704701460020874A5068A5
:1009C00020F4E06008435060704701460020834AED
:1009D000506820F4605040EAC1005060704729B16F
:1009E0007E4A527A02437D4B5A7204E07B4A527A25
:1009F00082437A4B5A7270477B49D83108607047FE
:100A000001460020754A506820F440400843506079
:100A100070470021714A20321170704A82F820100C
:100A2000012802D004280AD104E001216B4A2032B7
:100A3000117005E00521694A2032117000E000BF05
:100A400000BF70476949086070476449096A0143FB
:100A5000624A11627047654944390860704730B591
:100A600000210022002400235C4D6D6805F00C017C
:100A700021B1042905D0082923D105E05C4D05608A
:100A800022E05B4D05601FE0544D6D6805F4701267
:100A9000524D6D6805F48034022505EB92421CB975
:100AA000544D554305600BE04C4D6D6805F4003521
:100AB0001DB1504D5543056002E04D4D5543056055
:100AC00002E04B4D056000BF00BF444D6D6805F06E
:100AD000F0010909484D6B5C0568DD4045603F4DFC
:100AE0006D6805F4E061090A434D6B5C4568DD40C3
:100AF00085603A4D6D6805F46051C90A3E4D6B5CE6
:100B00004568DD40C560354D6D6805F44041890B91
:100B10003A4D6B5CC568B5FBF3F5056130BD29B195
:100B20002E4A526902432D4B5A6104E02B4A526906
:100B300082432A4B5A61704729B1284A926902437D
:100B4000264B9A6104E0254A92698243234B9A61BD
:100B5000704729B1214AD2690243204BDA6104E08F
:100B60001E4AD26982431D4BDA61704729B11B4A84
:100B7000D2680243194BDA6004E0184AD268824313
:100B8000164BDA60704729B1144A12690243134BBD
:100B90001A6104E0114A12698243104B1A617047CE
:100BA00012494039086070470F49C86470470B49C3
:100BB000C87170470948406A40F080700749486230
:100BC000704701460020054A92680A400AB1012098
:100BD00000E0002070470149887270470010024011
:100BE0000000FFF8FFFFF6FE000042428004424290
:100BF00000127A0000093D001400002024000020AB
:100C000029B1504A128802434E4B1A8004E04D4AE3
:100C1000128882434B4B1A8070474A48001D008857
:100C200040F010004749091D088070474548001DE5
:100C300000884FF6EF7108404249091D088070474F
:100C4000002140481C300188001F008841EA004014
:100C5000704700B50246FFF7E0FF100C3949183124
:100C60000880091D0A80FFF7E1FF00BD00B50246BC
:100C7000FFF7D3FFC2F30340324908310880091D52
:100C80000A80FFF7D3FF00BD00B50246FFF7C5FF9E
:100C9000100C2C4920310880091D0A80FFF7C6FF7F
:100CA00000BD00202749103109880907080B254994
:100CB000143109880843704700BF2248001D00888E
:100CC00000F020000028F8D070471E48001D008862
:100CD0004FF6F77108401B49091D088000BF1948ED
:100CE000001D008800F008000028F8D07047014679
:100CF0000020144A121D12880A400AB1012000E0A7
:100D0000002070470F49091D098881430D4A121DB3
:100D100011807047014600200A4A121D12880A40BD
:100D2000D0B2084A12880A4012B108B1012000E08E
:100D3000002070470349091D09888143014A121D9B
:100D4000118070470028004010B50446FE488442D8
:100D500008D10121C014FFF709FF0021E014FFF7BB
:100D600005FFC4E0B4F1804F08D101210846FFF728
:100D70000AFF00210120FFF706FFB8E0F348844294
:100D800008D101210220FFF7FEFE00210220FFF71B
:100D9000FAFEACE0EE48844208D101210420FFF7BE
:100DA000F2FE00210420FFF7EEFEA0E0E9488442B5
:100DB00008D101210820FFF7E6FE00210820FFF7F7
:100DC000E2FE94E0E448844208D101211020FFF7BC
:100DD000DAFE00211020FFF7D6FE88E0DF488442CB
:100DE00008D101212020FFF7CEFE00212020FFF7AF
:100DF000CAFE7CE0DA48844208D101214014FFF7A2
:100E0000B5FE00216014FFF7B1FE70E0D5488442C2
:100E100009D10121C804FFF7A9FE00214FF40020E9
:100E2000FFF7A4FE63E0D048844209D10121080500
:100E3000FFF79CFE00214FF48010FFF797FE56E06D
:100E4000CA48844209D101214805FFF78FFE0021DD
:100E50004FF40010FFF78AFE49E0C548844208D1EC
:100E600001214020FFF78FFE00214020FFF78BFE7D
:100E70003DE0C048844208D101218020FFF783FE75
:100E800000218020FFF77FFE31E0BB48844208D17B
:100E900001218015FFF777FE0021A015FFF773FEF3
:100EA00025E0B648844209D101210804FFF75EFE1F
:100EB00000214FF48030FFF759FE18E0B04884421B
:100EC00009D101214804FFF751FE00214FF4003001
:100ED000FFF74CFE0BE0AB48844208D101218804A7
:100EE000FFF744FE00214FF48020FFF73FFE10BDC6
:100EF00000220288944B98420ED0994B98420BD016
:100F0000B0F1804F08D0914B984205D0904B984259
:100F100002D0904B984204D14FF68F731A404B8801
:100F20001A438D4B984207D08C4B984204D04FF611
:100F3000FF431A40CB881A4302808B8883850B8835
:100F40000385814B98420BD0854B984208D08B4B40
:100F5000984205D08A4B984202D08A4B984201D1E0
:100F60000B7A038601238382704770B50024002228
:100F70000023058C4FF6FE7635400584028C83886D
:100F8000048B4FF68F752C40B51E2C400D882C43DA
:100F9000751E2A400D892A434D882A436A4DA8426E
:100FA0000BD06F4DA84208D0744DA84205D0744DA7
:100FB000A84202D0734DA84213D14FF6F7752A40CC
:100FC0004D892A434FF6FB752A408D882A434FF6F8
:100FD000FF652B404FF6FF552B408D892B43CD8964
:100FE0002B4383800483CD888586028470BD70B5D1
:100FF000002400220023058C4FF6EF76354005844F
:10100000028C8388048B48F6FF752C404FF6FF4511
:101010002C400D884FF6FF7606EA05252C434FF647
:10102000DF752A400D8906EA05152A434D8806EA30
:1010300005152A43444DA84202D0494DA8421DD16E
:101040004FF67F752A404D894FF6FF7606EA051563
:101050002A434FF6BF752A408D8806EA05152A43B4
:101060004FF6FF352B404FF2FF752B408D8906EA76
:1010700085052B43CD8906EA85052B4383800483B0
:10108000CD880587028470BD70B50024002200233E
:10109000058C4FF6FF6635400584028C8388848B6F
:1010A0004FF68F752C404FF6FC752C400D882C4365
:1010B0004FF6FF552A400D894FF6FF7606EA0525C3
:1010C0002A434D8806EA05252A431F4DA84202D02F
:1010D000234DA8421DD14FF2FF752A404D894FF68E
:1010E000FF7606EA05252A434FF6FF352A408D880C
:1010F00006EA05252A434EF6FF752B404DF6FF758F
:101100002B408D8906EA05152B43CD8906EA051586
:101110002B4383808483CD888587028470BD70B51E
:10112000002200230024058C4EF6FF76354005840E
:10113000038C8488828B48F6FF752A404FF6FF4562
:101140002A400D8820E00000002C014000040040EF
:1011500000080040000C0040001000400014004057
:1011600000340140004C0140005001400054014057
:1011700000180040001C00400020004000400140DA
:1011800000440140004801404FF6FF7606EA05257D
:101190002A434DF6FF752B400D8906EA05352B4392
:1011A0004D8806EA05352B43FA4DA84202D0FA4D88
:1011B000A84208D14BF6FF752C408D894FF6FF767B
:1011C00006EA85152C4384808283CD88A0F84050A0
:1011D000038470BD828B4FF2FF331A408283828B6F
:1011E0004FF6FF7303EA01231A4382837047F0B579
:1011F0000C461546002200210026078C4EF6FF7C87
:1012000007EA0C070784828B018C4FF6FF7707EA09
:10121000043640F6FF473A404FF6FF7707EA0527C6
:101220003A434FF6FF7707EA03373A43D94FB842BC
:101230000ED0D94FB8420BD0B0F1804F08D0D74F65
:10124000B84205D0D64FB84202D0D64FB84206D1E8
:101250004DF6FF77394046F48057394305E047F6AD
:10126000FF57394044F48057394382830184F0BDED
:10127000828B4FF6F3731A408283828B0A438283F8
:101280007047F0B50C461546002200210026078C59
:101290004FF6FF6C07EA0C070784828B018C4FF630
:1012A000FF7707EA04264FF60C773A404FF6FF77B0
:1012B00007EA03172F433A43B64FB8420ED0B64F52
:1012C000B8420BD0B0F1804F08D0B44FB84205D02F
:1012D000B34FB84202D0B34FB84206D14FF6FF57D2
:1012E000394046F48077394305E04FF2FF573940E3
:1012F00044F48077394382830184F0BD028B4FF23E
:10130000FF331A400283028B4FF6FF7303EA012377
:101310001A4302837047F0B50C461546002200219F
:101320000026078C4FF6EF7C07EA0C070784028B38
:10133000018C4FF6FF7707EA041640F6FF473A4064
:101340004FF6FF7707EA03373A434FF6FF7707EA8E
:1013500005273A438F4FB8420ED08F4FB8420BD07B
:10136000B0F1804F08D08D4FB84205D08C4FB842B5
:1013700002D08C4FB84206D14FF6DF77394046F0A5
:101380001007394305E04FF65F77394044F0100706
:10139000394302830184F0BD028B4FF6F3731A4088
:1013A0000283028B0A4302837047F0B50C46154650
:1013B00000220021068C4FF6FE773E400684028B09
:1013C000018C4FF60C7632407E1C06EA03162E4343
:1013D0003243704EB0420ED06F4EB0420BD0B0F1DF
:1013E000804F08D06D4EB04205D06D4EB04202D055
:1013F0006C4EB04206D14FF6FD76314044F0010606
:10140000314305E04FF6F576314044F001063143B3
:1014100002830184F0BD70B505460C465D488542E7
:101420000ED05D4885420BD0B5F1804F08D05B48A7
:10143000854205D05A48854202D05A48854200D19B
:1014400000E000BF208850B92389A288618828461F
:10145000FFF7ABFFE1882846FFF79EFF25E02088D5
:1014600004280AD12389A28861882846FFF753FF00
:10147000E1882846FFF742FF17E0208808280AD1B4
:101480002389A28861882846FFF7FBFEE188284669
:10149000FFF7EEFE09E02389A28861882846FFF75E
:1014A000A6FEE1882846FFF795FE70BD2DE9F041C4
:1014B00005460C4600260127608808B9022600E090
:1014C0000026A088012801D1022700E001272088FA
:1014D000A0B92389A28861882846FFF766FFE188C2
:1014E0002846FFF759FF23893A4631462846FFF739
:1014F00012FFE1882846FFF701FF13E02389A28845
:1015000061882846FFF707FFE1882846FFF7F6FEC7
:1015100023893A4631462846FFF747FFE1882846A7
:10152000FFF73AFFBDE8F0810A884B881A438B88A1
:101530001A43CB881A430B891A434B891A438B8968
:101540001A43A0F8442070474FF6FF7181800021B4
:101550000180C1804180017270470021018041807B
:101560008180C180018141818181C18170470021D9
:1015700001804180012181800021C180018170476B
:101580000021018041808180C18001814181818170
:1015900070470000002C014000340140000400406E
:1015A00000080040000C004021B1028842F0010216
:1015B000028004E002884FF6FE731A4002807047F2
:1015C00031B1B0F8442042F40042A0F8442005E0D4
:1015D000B0F84420C2F30E02A0F8442070471AB1BC
:1015E00083890B43838102E083898B438381704726
:1015F0008182704741EA0203A0F8483070471AB16F
:1016000083890B43838102E083898B438381704705
:1016100001894FF6F8721140018170470A46002196
:1016200001894FF68F73194011430181704730B51E
:1016300004460D4629462046FFF7F0FF208940F07A
:101640000700208130BD2DE9F04104460D461646C5
:101650001F46602D06D13B46012231462046FFF74A
:101660005AFE05E03B46012231462046FFF79DFE2B
:1016700029462046FFF7D2FF208940F0070020814D
:10168000BDE8F08130B50C4600210189C9B24FF6A2
:10169000FF7505EA0325154325432943018130BD24
:1016A0002DE9F04105460E4617469846002443466C
:1016B0003A4631462846FFF7E5FF2C894FF6F87089
:1016C000044044F007044FF68F70044044F0700467
:1016D0002C81BDE8F081F0B504460D4616461F4644
:1016E0003B46324629462046FFF7CCFF208940F48E
:1016F00080402081F0BD0185828270470A4600212A
:1017000001884FF68F731940114301807047F0B57F
:101710000C4615461E460021002200230189028B3B
:10172000038C4FF6F877394021434FF6FC473A4097
:1017300040F201173A434FF6DD773B404FF6FF7713
:1017400007EA06172F433B43018102830384F0BD60
:101750000A460021018B4FF68F7319401143018314
:1017600070470A460021018B48F6FF7319404FF677
:10177000FF7303EA02231943018370470A460021DD
:10178000818B4FF68F7319401143818370470A464E
:101790000021818B48F6FF7319404FF6FF7303EA6F
:1017A000022319438183704721B1028842F08002ED
:1017B000028004E002884FF67F731A40028070476F
:1017C00021B1828842F00402828004E082884FF6D0
:1017D000FB731A408280704721B1828842F0080270
:1017E000828004E082884FF6F7731A408280704747
:1017F00021B1828842F00102828004E082884FF6A3
:10180000FE731A40828070470A460021018B4FF612
:10181000F77319401143018370470A460021018B79
:101820004FF2FF7319404FF6FF7303EA0223194387
:10183000018370470A460021818B4FF6F7731940E8
:101840001143818370470A460021818B4FF2FF7359
:1018500019404FF6FF7303EA02231943818370474F
:101860000A460021018B4FF6FB7319401143018397
:1018700070470A460021018B4FF6FF3319404FF69F
:10188000FF7303EA02231943018370470A460021CC
:10189000818B4FF6FB7319401143818370470A46D1
:1018A0000021818B4FF6FF3319404FF6FF7303EA97
:1018B00002231943818370470A460021018B4FF6AA
:1018C0007F7319401143018370470A460021018B41
:1018D000C1F30E014FF6FF7303EA0223194301839C
:1018E00070470A460021818B4FF67F7319401143E0
:1018F000818370470A460021818BC1F30E014FF6A8
:10190000FF7303EA02231943818370470A460021CB
:10191000018C4FF6FD7319401143018470470A464C
:101920000021018C4FF6F773194011430184704771
:101930000A460021018C4FF6DF7319404FF6FF7302
:1019400003EA02131943018470470A460021018CFF
:101950004FF67F7319404FF6FF7303EA02131943E2
:10196000018470470A460021018C4FF6FF5319404D
:101970004FF6FF7303EA02231943018470470A46B6
:101980000021018C4FF2FF7319404FF6FF7303EAF9
:1019900002231943018470470A460021018C4DF649
:1019A000FF7319404FF6FF7303EA023319430184B2
:1019B000704730B5002301248C40A3B2048C9C43B3
:1019C0000484048C02FA01F5ADB22C43048430BDCA
:1019D00030B5002304248C40A3B2048C9C430484BF
:1019E000048C02FA01F5ADB22C43048430BD70B50D
:1019F0000346002000241846183001258D40ACB263
:101A00001D8CA5431D8409B1082909D100EB610093
:101A1000056825F0700505600568154305600EE052
:101A20000D1FC5F34E052844056825F4E045056003
:101A300005684FF6FF7606EA02263543056070BD5D
:101A400021B1028842F00202028004E002884FF6CF
:101A5000FD731A400280704721B1028842F00402EF
:101A6000028004E002884FF6FB731A400280704740
:101A700021B1828842F08002828004E082884FF6A1
:101A80007F731A408280704702884FF6F7731A40BE
:101A9000028002880A430280704782884FF68F7363
:101AA0001A40828082880A438280704702894FF6FA
:101AB000F8731A40028102890A4302817047028941
:101AC0004FF67F731A40028102890A4302817047F0
:101AD0008184704781857047818670470187704790
:101AE00081877047A0F84010704702884FF6FF4387
:101AF0001A40028002880A43028070470146888E9D
:101B000070470146088F70470146888F704701462D
:101B1000B1F8400070470146888C70470146088D37
:101B2000704702460020138A0B400BB1012000E0F1
:101B300000207047CA430282704730B50246002039
:101B400000230024158A05EA0103958905EA0104AA
:101B500013B10CB1012000E0002030BDCA43028265
:101B60007047000010B50446FB48844209D10121AA
:101B70008803FEF7FBFF00214FF48040FEF7F6FFDD
:101B800032E0F648844209D101214804FEF7FBFF08
:101B900000214FF40030FEF7F6FF25E0F0488442C4
:101BA00009D101218804FEF7EEFF00214FF48020C7
:101BB000FEF7E9FF18E0EB48844209D10121C8048F
:101BC000FEF7E1FF00214FF40020FEF7DCFF0BE001
:101BD000E548844208D101210805FEF7D4FF002121
:101BE0004FF48010FEF7CFFF10BD2DE9F04786B00F
:101BF00005460E460024A24600BFA1460027B08934
:101C000000B100BF2F462C8A4CF6FF700440F088CC
:101C100004432C82AC894EF6F3100440B08831891D
:101C20000843718908430443AC81AC8A4FF6FF40F6
:101C30000440B0890443AC8201A8FEF710FFC648F7
:101C4000874202D1DDF810A001E0DDF80CA0A889E0
:101C500000F4004040B10AEBCA0000EB0A10316802
:101C60004900B0FBF1F807E00AEBCA0000EB0A10EC
:101C700031688900B0FBF1F86420B8FBF0F0040192
:101C80002009642101FB1089A88900F4004040B1BB
:101C9000322000EBC900B0FBF1F000F00700044374
:101CA00008E0322000EB09106421B0FBF1F000F0F5
:101CB0000F0004432C8106B0BDE8F0874FF41651A5
:101CC000016000218180C18001810C2141810021BE
:101CD0008181704710B502460020108A4FF2FF0341
:101CE00018400B884C8823438C882343CC8823439B
:101CF0001843108210BD0021018041808180C18085
:101D0000704721B1828942F40052828104E08289C5
:101D10004DF6FF731A4082817047F0B503460024E8
:101D200000260025002040F66A17B94200D100BF06
:101D30001846C1F3421401F01F06012707FA06F501
:101D4000012C01D10C3004E0022C01D1103000E054
:101D500014301AB107682F43076002E00768AF43E9
:101D60000760F0BD1AB1838A0B43838202E0838A45
:101D70008B4383827047028A4FF6F0731A400282C7
:101D8000028A0A430282704782894FF2FF731A4027
:101D9000828182890A438281704721B1828942F01F
:101DA0000202828104E082894FF6FD731A4082812B
:101DB0007047028A4FF6DF731A400282028A0A4392
:101DC0000282704721B1028A42F48042028204E01A
:101DD000028A4BF6FF731A4002827047C1F3080271
:101DE0008280704701468888C0F308007047818967
:101DF00041F0010181817047028BD2B20283028BD4
:101E000042EA012202837047028B02F47F4202837E
:101E1000028B0A430283704721B1828A42F020027A
:101E2000828204E0828A4FF6DF731A408282704712
:101E300021B1828A42F01002828204E0828A4FF647
:101E4000EF731A408282704721B1828A42F0080201
:101E5000828204E0828A4FF6F7731A4082827047CA
:101E600021B1828942F40042828103E08289C2F377
:101E70000E028281704721B1828A42F4006282821E
:101E800004E0828A4FF2FF731A4082827047828A8E
:101E90004FF6FB731A408282828A0A43828270471D
:101EA00021B1828A42F00202828204E0828A4FF6E5
:101EB000FD731A408282704702460020B1F5007F10
:101EC00000D100BF13880B400BB1012000E00020BF
:101ED000704701F40072B2F5007F00D100BFCA4321
:101EE0000280704770B502460024002300250020C0
:101EF00040F66A16B14200D100BFC1F3421501F0AD
:101F00001F03012606FA03F3012D02D196893340FF
:101F100006E0022D02D1168A334001E0968A334052
:101F20000C12012606FA04F41688344013B10CB1E1
:101F3000012000E0002070BD10B50022002340F613
:101F40006A14A14200D100BF0A1201249440A3B236
:101F5000DC43048010BD0000003801400044004014
:101F600000480040004C004000500040704710B551
:101F7000FEF7C6F810BD00BFFEE700BFFEE700BFDA
:101F8000FEE770477047704700204FF0E0218861FE
:101F9000704710B540F225514E48FFF7A3FF98B1A6
:101FA00040F225514B48FFF7C7FF4A48FFF71AFF99
:101FB000044621464748FFF711FF00BF80214548EE
:101FC000FFF77AFF0028F9D010BD08B50020009077
:101FD00040F225514048FFF785FF90B140F225516E
:101FE0003D48FFF7A9FF3C48FFF7FCFEC0B2009058
:101FF0003A4803F0EDFE20B101226946374803F06C
:102000003EFF08BD10B540F225513548FFF76AFF85
:1020100098B140F225513248FFF78EFF3048FFF764
:10202000E1FE044621462E48FFF7D8FE00BF80217E
:102030002B48FFF741FF0028F9D010BD10B5012152
:102040002848FFF77AFDE8B101212648FFF786FD11
:1020500025480068401C2449086024480088401C2A
:102060002249088022480078401C214908701F48F6
:102070000088B0F57A7F05DB00201C49088001202C
:102080001C49087010BD10B50120FEF743FE10B1C9
:102090000120FEF74FFE10BD10B51748006820F074
:1020A00002001549086009E014A003F0C7FF802171
:1020B0001748FEF718FB8020FEF719FA8020FEF77C
:1020C00005FA0028F0D10C48006840F002000A49E7
:1020D000086010BD0038014000440040CC000020E2
:1020E0000048004000040040700000202A0000204A
:1020F000640000204800002004040140496E66721C
:10210000617265645F455854492E2E2E0D0A0000F9
:10211000000C014010B501F078FBFE49C872FE4981
:10212000FE4801F0C8F9FD490978FD4A127888187F
:1021300000EBD071C1F34701F64A1173F6490978F3
:10214000F84A1278881800EBD071C1F34701F14AC0
:1021500051731046007B0D3011460873EF4800782C
:10216000EF490870EC480078EE49087010BD00B5E2
:102170008BB0ED480088C0F3002000287ED0EB48EB
:1021800000780128FAD0E848807800284ED1E84845
:10219000007BE749C97AE64A927AE54B5B7ACDE95A
:1021A0000632CDE90810E248007AE149C979E04AEF
:1021B0009279DF4B5B79CDE90232CDE90410DC483E
:1021C0000079DB49C978CDE90010D9488378427895
:1021D0000178D8A003F032FFE3480078E34909789A
:1021E000CDE90010E2480378E2480278E2A1E6A0D7
:1021F00003F024FFEB480078EB490978EB4A1278AA
:10220000CDE900210290EA480378EA480278EAA181
:10221000EDA003F013FF00221146104601F0B4F8C0
:102220000020BC490870F0A003F008FFBE48807889
:10223000012823D1B74908706F20EF4908700120A9
:10224000EE49088003F02AFD0520ED490978ED4AA2
:102250001278CDE900210290EB480378EB48027830
:102260000721102001F0FCFDE94801F020FE03F0F9
:10227000E0FCE248008801285DD100E08DE000200C
:10228000DE490880E3A003F0D9FE0020DA49087097
:10229000E4480078A6494870E34800788870E3482D
:1022A0000078C870E24800780871E2480078487108
:1022B000E14800788871E1480078C871E04800780A
:1022C0000872E04800784872DF4800788872D74882
:1022D0000078C872D648007808731022002001F0F8
:1022E0003FFD10229249002001F081FD9048007BC3
:1022F0008F49C97A8E4A927A8D4B5B7ACDE9063244
:10230000CDE908108A48007A8949C979884A9279C2
:10231000874B5B79CDE90232CDE90410844800791E
:102320008349C978CDE900108148837842780178E3
:10233000C6A003F083FE8C4800788C490978CDE96B
:1023400000108B4803788B4802788BA18EA003F095
:1023500075FE9448017894480078944A1278CDE943
:1023600000200291924803789248027892A196A0A8
:1023700003F064FE01206749087000221146FE2028
:1023800001F002F8BFA003F059FE0221C148FEF798
:10239000AAF910B1012002F0F8FE63480088C0F3EA
:1023A000402078B1BCA003F049FE5F48C07859498D
:1023B00048705D48C0789B49087008460178BAA00B
:1023C00003F03CFE58480088C0F3802078B1BFA0DD
:1023D00003F034FE544800794E4988705248007921
:1023E0009149087008460178BCA003F027FE4E48CA
:1023F0000088C0F3C02078B1C0A003F01FFE4A4897
:1024000040794449C870484840798849087008466E
:102410000178BEA003F012FE43480088C0F30030EC
:1024200060B1414880793B4908713F4880798149D2
:10243000087008460178BDA003F000FE3A48008805
:10244000C0F3403060B13848C079324948713648ED
:10245000C0797949087008460178BDA003F0EEFD07
:1024600031480088C0F3803060B12F48007A294994
:1024700088712D48007A7149087008460178BCA01F
:1024800003F0DCFD284800880121B1EBD03F0CD1DE
:102490002548407A1F49C8712348407A6849087026
:1024A00008460178BBA003F0C9FD1F48007800F082
:1024B000010060B11C48807A164908721A48807A77
:1024C0006049087008460178BBA003F0B7FD1648C4
:1024D0000078C0F3400060B11348C07A0D494872DB
:1024E0001148C07A5849087008460178BAA003F02C
:1024F000A5FD0D480078C0F3800048B10A48007B74
:10250000044988720848007B49490870084673E10D
:1025100076E10000B90000204C0000204B000020B4
:102520004D0000204E000020AC000020490000209B
:10253000C90500200D0A454550524F4D3A202564EB
:10254000202564202564202564202564202564201E
:102550002564202564202564202564202564202509
:1025600064202564200D0A009900002098000020B6
:102570009700002096000020CFC2CEBBBBFA2D2DC5
:10258000CAB1BCE4000000000D0A54696D653A2030
:10259000257320256420202564203A25643A25648B
:1025A0000D0A00008800002087000020860000201F
:1025B0008500002084000020D4C6B6CB2D2D2D2D03
:1025C000CAB1BCE4000000000D0A54696D653A20F0
:1025D00025732025642D25642025643A25643A2539
:1025E00064200D0A000000005365744C45445F4FA1
:1025F0006666200D0A000000A10000205C0000209B
:1026000095000020940000209300002092000020FC
:102610009A000020BFAACABCD0B4C8EBCAFDBEDD78
:102620000000000050000020510000205200002057
:1026300053000020540000205500002056000020C8
:102640005700002058000020590000200D0A454581
:1026500050524F4D3A2025642025642025642025C2
:1026600064202564202564202564202564202564B9
:1026700020256420256420256420256420200D0A5F
:10268000000000005365744C45445F4F6E200D0AF6
:1026900000000000000C0140BFAACABCCAE4C8EB9D
:1026A00041D2A9CAFDBEDD00CAE4C8EBB5C461D2FF
:1026B000A9CAFDBEDDCEAA25642020B2BBD2AACD18
:1026C000FCBCC7D0B4C8EBC5B6000000BFAACABCEA
:1026D000CAE4C8EB42D2A9CAFDBEDD00CAE4C8EB19
:1026E000B5C442D2AACAFDBEDD25642020B2BBD249
:1026F000AACDFCBCC7D0B4C8EBC5B600BFAACABC43
:10270000CAE4C8EB43D2A9CAFDBEDD00CAE4C8EBE7
:10271000B5C443D2AACAFDBEDD25642020B2BBD217
:10272000AACDFCBCC7D0B4C8EBC5B600CAE4C8EBA0
:10273000D4E7B3BFD0A1CAB1CEAA25642020B2BBD2
:10274000D2AACDFCBCC7D0B4C8EBC5B6000000000F
:10275000CAE4C8EBD4E7B3BFB7D6D6D325642020EC
:10276000B2BBD2AACDFCBCC7D0B4C8EBC5B6000082
:10277000CAE4C8EB5348414E475755CAB1CEAA25C3
:10278000642020B2BBD2AACDFCBCC7D0B4C8EBC574
:10279000B6000000CAE4C8EB5348414E475755B74E
:1027A000D6D6D325642020B2BBD2AACDFCBCC7D0DC
:1027B000B4C8EBC5B6000000CDEDC9CFB5C4D0A1FB
:1027C000CAB125642020B2BBD2AACDFCBCC7D0B40C
:1027D000C8EBC5B600000000CDEDC9CFB5C4B7D673
:1027E000D6D325642020B2BBD2AACDFCBCC7D0B4BE
:1027F000C8EBC5B6000000000178F2A003F01EFC93
:102800000BB000BD10B5002400F02FFC044604F00E
:102810002000B0B104F0010010B1F3A003F00EFCF1
:1028200004F0020068B1F4A003F008FC0022114695
:10283000FF2000F0A9FD012003F00BF90120F5496C
:10284000087004F08000C0B104F0010020B1F2A0D3
:1028500003F0F4FB03F0BDF804F0020068B1F6A049
:1028600003F0ECFB00228021104600F08DFD0220D9
:1028700003F0EFF80120E749087010BD10B5002003
:10288000F54988730870C87248708870C87088727B
:10289000087148718871C87108724872087348736A
:1028A0008873C873102002F032FDECA003F0C6FB61
:1028B00010BD30B585B0EEA003F0C0FBFEF76EF89A
:1028C0000446042C03D1EFA003F0B8FB09E01CB9C7
:1028D000F2A003F0B3FB04E0082C02D1F5A003F052
:1028E000ADFB6846FEF7BBF8F8490098B0FBF1F580
:1028F0002946F7A003F0A2FBF4490198B0FBF1F5DB
:102900002946F8A003F09AFBF0490298B0FBF1F5D4
:102910002946FAA003F092FBEC490398B0FBF1F5CD
:102920002946FCA003F08AFBE8490498B0FBF1F5C6
:102930002946FEA003F082FB05B030BD10B548204B
:1029400000F0DAFA00F02AFF00F0FEFC00F02AFCAA
:1029500000F028FB092141F61F4000F046FB00F083
:10296000D6FD00F03FFF02F03DFB10BDACB00024EF
:102970000025FDF748FCFFF7E1FFFFF79AFFFFF79F
:102980007DFF0020F24908701022F24901F02FFA71
:102990006F20EF49087001220BA9022001F027FAED
:1029A0009DF82C0000F0200070B10520EA4909785C
:1029B000EA4A1278CDE900210290E948037814220E
:1029C0000721162001F04CFA63E2681C80B205462C
:1029D0004EF6602188427DD1E2480088401C80B2DA
:1029E000E0490880C010002852D001220921DE48A9
:1029F00002F002FC6F20D6490870DC4801F057FA5B
:102A000003F017F9D348007BD249C97AD14A927AA8
:102A1000D04B5B7ACDE90632CDE90810CD48027A79
:102A2000C1798079CB4B5B79CDE90230CDE90412D5
:102A3000C8480079C749C978CDE90010C5488378EE
:102A400042780178CAA003F0F9FAD7480078D7494C
:102A50000978CDE90010D6480378D6480278AFF25D
:102A6000E841AFF2DC4003F0E9FAD3480078D349FB
:102A70000978D34A1278CDE900210290D148037831
:102A8000D1480278AFF2D041AFF2C44003F0D6FA99
:102A9000CE48007860B90221CD48FDF724FE38B158
:102AA000002002F072FBC9480078401CC74908703A
:102AB000A8484079BE490978884209D1A54880795B
:102AC000BA490978884203D1B7480078052821DB44
:102AD000A04800E038E0C079B5490978884209D1BA
:102AE0009C48007AB1490978884203D1AE48007801
:102AF00005280FDB9748407AAD490978884223D1F1
:102B00009448807AA949097888421DD1A64800785E
:102B1000052819DAA648007848B9A448007830B1E9
:102B20008C4E3379F278B178707802F0BFF8A04813
:102B3000007848B19D48007830B1864E3379F278FC
:102B4000B178707802F0B2F8012C39D10024AFF2DC
:102B50003C5003F073FA00207D4908709D480078CE
:102B60007C4948709C48007888709C480078C87000
:102B70009B48007808719B48007848719A48007813
:102B800088719A480078C871994800780872994805
:102B90000078487298480078887290480078C87227
:102BA0008F48007808731022002001F0D9F8102215
:102BB0006849002001F01BF96648007B65491DE16A
:102BC00041E10000CAE4C8EB44D2A9CAFDBEDDCA97
:102BD000B1CEAA25642020B2BBD2AACDFCBCC7D0FE
:102BE000B4C8EBC5B60000004B45593120505245E2
:102BF00053530D0A000000004B45593220505245F6
:102C00005353202C536F6674204150206D6F6465C0
:102C10000D0A00004A0000204B4559312050524512
:102C20005353204C4F4E47202C57696669205265FC
:102C30007365740D0A0000004B455932205052450F
:102C40005353204C4F4E47202C4169724C696E6B98
:102C5000206D6F64650D0A00B9000020476F6B6935
:102C60007420496E6974204F6B202E2E2E0D0A00A1
:102C700053797374656D2073746172742E2E2E0DEA
:102C80000A000000535953434C4B536F75726365F0
:102C9000206973204853450D0A00000053595343DF
:102CA0004C4B536F75726365206973204853490D0F
:102CB0000A000000535953434C4B536F75726365C0
:102CC00020697320504C210D0A00000040420F0083
:102CD00053595320636C6F636B203D25644D487AD4
:102CE000200D0A0048434C4B20636C6F636B203D02
:102CF00025644D487A200D0A0000000050434C4BDB
:102D00003120636C6F636B203D25644D487A200D44
:102D10000A00000050434C4B325F636C6F636B20C2
:102D20003D25644D487A200D0A000000534144437C
:102D3000434C4B5F4672657175656E6379636C6F6A
:102D4000636B203D25644D487A200D0A0000000089
:102D5000A1000020C905002095000020940000205B
:102D6000930000205A000020890000209A000020D3
:102D70000D0A454550524F4D3A20256420256420C8
:102D800025642025642025642025642025642025D1
:102D90006420256420256420256420256420256482
:102DA0002020200D0A00000099000020980000203B
:102DB0009700002096000020880000208700002057
:102DC00086000020850000208400002034000020C0
:102DD000000C014050000020510000205200002053
:102DE0005300002054000020550000205600002011
:102DF000570000205800002059000020CA7A897A24
:102E00002F4B5B7ACDE90631CDE908202C48007ABA
:102E10002B49C9792A4A9279294B5B79CDE902324B
:102E2000CDE90410264800792549C978CDE900107C
:102E30002348837842780178AFF6081003F0FEF853
:102E40006F2020490870FFF7DDFC0D210CA802F06F
:102E500043FD1D48007801280ED10D220CA91B4806
:102E600003F058F8FFF783F901221949194802F0D5
:102E700033FE0020144908701748007820B1FFF78E
:102E800049F900201449087000221149114802F044
:102E900023FE9AE510B5044604F0200020280ED148
:102EA0000E48007801280AD10DA003F0C7F80020D1
:102EB0000A49087000221146104600F065FA10BD5C
:102EC000C9050020A10000204F000020AC00002018
:102ED000C0270900B9000020480000204A00002057
:102EE00057324D2D3E576966695F436F6E6E436C76
:102EF0006F7564730D0A000010B504466FF004008E
:102F0000FDF751FAE11704EB5171C1F3C701234AF0
:102F100011701046007800EB4001C1EBC0104FF675
:102F2000FF7101EAC0001E49088010BD01461B4A1E
:102F300012784A434FF0E0235A6100229A6101223D
:102F40001A6100BF4FF0E022106900F001021AB1CF
:102F500000F48032002AF5D000224FF0E0231A61FD
:102F60009A61704701460E4A12884A434FF0E023A7
:102F70005A6100229A6101221A6100BF4FF0E022DB
:102F8000106900F001021AB100F48032002AF5D075
:102F900000224FF0E0231A619A6170476000002020
:102FA0006200002008B501211C20FDF7C5FD0320AB
:102FB0008DF8020048208DF803004FF48070ADF8C2
:102FC000000069465D48FDF7FBFA4FF40050ADF88C
:102FD000000069465A48FDF7F3FA0220ADF80000F8
:102FE00069465848FDF7ECFA08BD7FB505460C4622
:102FF00001210220FDF7ADFDADF80850ADF8044009
:103000000020ADF80A00ADF8060001A94E48FDF712
:103010006FFF012211464C48FEF7E1FA1D208DF8A2
:10302000000000208DF8010002208DF80200012030
:103030008DF803006846FDF76CF901214248FEF760
:10304000B3FA7FBD10B54FF480713C48FDF74BFBE0
:1030500008B944F002044FF400513948FDF743FB2E
:1030600008B944F00404204610BD70B50025374867
:1030700000780A2805DB0020344908700120344913
:10308000087033480078012855D100203049087075
:10309000FFF7D8FF04462F48007830B101280BD045
:1030A000022819D0032845D13CE024B12A480470F5
:1030B0000120284908703DE027480078844207D164
:1030C0000220244908702448007840F0100502E0EE
:1030D0000020204908702DE01F48007884420AD063
:1030E00000201C4908701D4908801B48007840F0EA
:1030F0002005284670BD18480078844211D1174831
:103100000088401C1549088008460088642808DBB0
:103110000020088003200F49087044F080052846ED
:10312000E8E707E00C480078844202D00020094913
:10313000087000BF00BF0020DCE70000000801406D
:1031400000100140000C0140000400406400002019
:1031500065000020660000206A0000206800002052
:1031600010B50446012C06D0022C09D0042C0CD03A
:10317000082C14D10EE010213A48FDF7D0FA0FE0E8
:1031800020213848FDF7CBFA0AE040213548FDF709
:10319000C6FA05E080213348FDF7C1FA00E000BF20
:1031A00000BF10BD08B501210C20FDF7C5FC0320B0
:1031B0008DF8020010208DF8030003208DF8020026
:1031C0001020ADF8000069462648FDF7F9F92020E7
:1031D000ADF8000069462348FDF7F2F94020ADF84C
:1031E000000069461F48FDF7EBF98020ADF80000AC
:1031F00069461C48FDF7E4F90120ADF80000694676
:103200001948FDF7DDF90120FFF7AAFF0220FFF7BB
:10321000A7FF0420FFF7A4FF0820FFF7A1FF08BDC8
:1032200010B50446012C06D0022C09D0042C0CD079
:10323000082C14D10EE010210A48FDF76EFA0FE0B9
:1032400020210848FDF769FA0AE040210548FDF70A
:1032500064FA05E080210348FDF75FFA00E000BF53
:1032600000BF10BD00080140000C014008B500215E
:103270000091009102E00099491C0091009981425F
:10328000F9D308BD10B54FF480714848FDF747FAEF
:103290002820FFF7EBFF4FF480714448FDF73DFA1B
:1032A0002820FFF7E3FF10BD10B54FF400713F4831
:1032B000FDF735FA002403E0FFF7E4FF601CC4B219
:1032C000202CF9DB10BD01460020CA43C2F3811057
:1032D000704770B50446002512E004F0004028B1A4
:1032E0004FF400713148FDF718FA04E04FF4007113
:1032F0002E48FDF714FA6400FFF7C4FF681CC5B23E
:10330000202DEADB70BD2DE9F04107460D4616463B
:10331000002444F040443046FFF7D5FF44EA0074EF
:103320002846FFF7D0FF44EA80643846FFF7CBFF1A
:1033300044EA006444EA064444EA05243C43204647
:10334000FFF7C7FFBDE8F08108B501210820FDF7B0
:10335000F3FB10208DF803004FF44070ADF800002F
:1033600003208DF8020069461048FDF729F9FFF7A0
:103370009BFF002211461046FFF7C5FF00221146B1
:103380001046FFF7C0FF08BD70B504460D4616464F
:10339000FFF78AFF324629462046FFF7B4FF324640
:1033A00029462046FFF7AFFF70BD0000000C01402A
:1033B00008B50820ADF8000010208DF803000120AA
:1033C0008DF8020069466148FDF7FAF8002060496F
:1033D00008601420FFF7C6FD01205E49C1F88C018A
:1033E0001E20FFF7A3FD08BD38B500240820ADF866
:1033F000000048208DF8030001208DF80200694686
:103400005248FDF7DDF804E0601CC4B20120FFF76C
:103410008DFD4F488038006808B1642CF4DB642CC3
:1034200001DB012038BD002404E0601CC4B201208F
:10343000FFF77CFD46488038006808B9642CF4DB4F
:10344000642C01DB0120EDE70020EBE710B5002440
:1034500004E0601CC4B20120FFF768FD3C488038DE
:10346000006808B1642CF4DB002404E0601CC4B2E2
:103470000120FFF75BFD36488038006808B9642CEE
:10348000F4DB2820FFF752FD31488038006808B18E
:10349000012010BD0020FCE770B50024002506E0E7
:1034A0006006040EFFF7D2FF0443681CC5B2082D66
:1034B000F6DB204670BD7CB505460E46FFF778FF6B
:1034C000FFF792FFF8B9002405E0FFF7E5FF0DF8DC
:1034D0000400601CC4B2052CF7DB9DF800009DF8C9
:1034E000011008449DF8021008449DF80310084498
:1034F0009DF80410884208D19DF8000030709DF8B6
:103500000200287001E001207CBD0020FCE708B526
:1035100001210820FDF710FB01210F48FDF721F9DB
:103520000820ADF8000010208DF8030003208DF86E
:10353000020069460548FDF743F808210348FDF7F6
:10354000ECF8FFF735FFFFF74FFF08BD000C014017
:103550008C812142008021420002300008B5012107
:103560000420FDF7E9FA01210846FDF7E5FA0121FB
:103570008803FDF7E1FA4FF40070ADF80000182061
:103580008DF8030003208DF8020069468F48FDF78F
:1035900017F84FF48060ADF8000004208DF80300A8
:1035A00069468A48FDF70CF801210420FDF7C4FAAA
:1035B00001214804FDF7CDFA01210846FDF7BCFAC8
:1035C0000420ADF8000018208DF8030003208DF8CA
:1035D000020069467D48FCF7F3FF0820ADF80000C3
:1035E00004208DF8030069467848FCF7E9FF0121C3
:1035F0001020FDF7A1FA01218804FDF7AAFA0121A4
:103600000846FDF799FA01217148FDF7AAF84FF431
:103610008060ADF8000018208DF8030003208DF8BD
:10362000020069466B48FCF7CBFF4FF40060ADF831
:10363000000004208DF8030069466648FCF7C0FFCF
:1036400008BD1FB54FF4E13000900020ADF8040034
:10365000ADF80600ADF80800ADF80C000C20ADF890
:103660000A0069465C48FEF7C0FA012240F2255183
:103670005948FEF752FB01215748FEF742FB402113
:103680005548FEF726FC4FF4165000900020ADF888
:103690000400ADF80600ADF80800ADF80C000C20F1
:1036A000ADF80A0069464D48FEF79FFA012240F244
:1036B00025514A48FEF731FB01214848FEF721FB1E
:1036C00040214648FEF705FC4FF4E1300090002011
:1036D000ADF80400ADF80600ADF80800ADF80C0038
:1036E0000C20ADF80A0069463D48FEF77EFA01223B
:1036F00040F225513A48FEF710FB01213848FEF709
:1037000000FB40213648FEF7E4FB1FBD08B525202D
:103710008DF8000000208DF801008DF802000120D6
:103720008DF803006846FCF7F4FD26208DF80000B4
:1037300000208DF8010001208DF802008DF80300B3
:103740006846FCF7E6FD27208DF8000000208DF884
:10375000010001208DF802008DF803006846FCF797
:10376000D8FD08BD10B5044621461C48FEF736FBBF
:1037700000BF80211948FEF79FFB0028F9D010BD3B
:1037800010B5044621461448FEF728FB00BF8021EF
:103790001148FEF791FB0028F9D010BD10B5FFF7D6
:1037A000DDFEFFF74EFFFFF7B1FF10BD70B5044619
:1037B0000D46E1B20848FEF711FB00BF8021064824
:1037C000FEF77AFB0028F9D0204670BD00080140C2
:1037D0001000140000100140003801400044004077
:1037E0000048004008B501210820FDF7A5F9802018
:1037F000ADF8000028208DF8030002208DF80200AB
:1038000069462C48FCF7DCFE08BD10B52AA002F082
:1038100015FC80212748FCF766FF00282BD02A4999
:10382000086800EBD0714910A0EB4101B1B92748FD
:10383000006801280DD102211E48FCF754FF40B159
:1038400023A002F0FBFB042001F09FFC00201F4995
:10385000086023A002F0F2FB002010BD24A002F0BB
:10386000EDFB02211348FCF73EFF10B1022001F0EE
:103870008CFC0120F1E72348016823A002F0DEFB65
:1038800020480068012812D122A002F0D7FB0221B3
:103890000848FCF728FF50B1032001F076FC002017
:1038A000094908601749086001200849086000209C
:1038B000D3E70000000C0140BDF8C8EBBBF4B6FB39
:1038C000BCECB2E200000000300000203C00002010
:1038D000D3EFD2F4CCE1D0D1B9E9CEBB00000000E7
:1038E000D2A9BAD0D4DAD4ADCEBBD6C30000000082
:1038F000D6B4D0D0D6D0D2A9BAD0D2D4C4C3B3F61D
:103900000000000038000020797979797979256400
:1039100000000000686168616868616861686868E3
:1039200000000000F8B504460E46154603208DF849
:103930000200ADF8006001210846FDF7FDF8092DF1
:1039400026D2DFE805F02505090D1115191D210006
:1039500000208DF803001BE004208DF8030017E021
:1039600028208DF8030013E048208DF803000FE0B5
:1039700014208DF803000BE010208DF8030007E001
:103980001C208DF8030003E018208DF8030000BF11
:1039900000BF082C44D2DFE804F043040D161F28B2
:1039A000313A01210420FDF7C7F869464048FCF789
:1039B00007FE35E001210820FDF7BEF869463D48C5
:1039C000FCF7FEFD2CE001211020FDF7B5F869465B
:1039D0003948FCF7F5FD23E001212020FDF7ACF884
:1039E00069463648FCF7ECFD1AE001214020FDF75E
:1039F000A3F869463248FCF7E3FD11E0012180207D
:103A0000FDF79AF869462F48FCF7DAFD08E0012136
:103A10000802FDF791F869462B48FCF7D1FD00BF7D
:103A200000BFF8BD2DE9F04106460C463046FCF7D4
:103A300070FE0746FFB225464FF6FF7000EA0525E7
:103A40003D43F560BDE8F0812DE9F04105460C46A7
:103A50002846FCF75EFE064606F47F4627463743B7
:103A6000EF60BDE8F08108B501217C20FDF764F826
:103A70004FF6FF70ADF8000000208DF80300694696
:103A80000B48FCF79DFD69460A48FCF799FD69461D
:103A90000948FCF795FD69460848FCF791FD694621
:103AA0000748FCF78DFD00217C20FDF745F808BD97
:103AB00000080140000C01400010014000140140CA
:103AC00000180140001C01400020014006E00021D8
:103AD00000E0491CB1F57A7FFBD3401E0028F6D1E7
:103AE000704715E000BF00BF00BF00BF00BF00BFB0
:103AF00000BF00BF00BF00BF00BF00BF00BF00BFCE
:103B000000BF00BF00BF00BF00BF00BF411E88B2A2
:103B10000028E7DC704710B506224FF40071022040
:103B2000FFF700FF0120FE490860FE49C1F8A0012F
:103B30000420FFF7D6FF0020F94908600420FFF7B2
:103B4000D0FF0020F749C1F8A00110BD10B5062232
:103B50004FF400710220FFF7E5FE0020F049091F35
:103B60000860F049C1F8A4010420FFF7BAFF012062
:103B7000EB49091F0860EB49C1F8A4010420FFF7D5
:103B8000B0FF10BD10B506224FF480710220FFF780
:103B9000C9FE06224FF400710220FFF7C3FE10BDDC
:103BA00070B5044606224FF400710220FFF7BAFEFA
:103BB0000020DB49091F0860002517E0E009D8490B
:103BC00008606006040E0220FFF78BFF0120D54934
:103BD000C1F8A0010220FFF784FF0020D049091F8F
:103BE00008600220FFF77DFF681CC5B2082DE5DBE9
:103BF00070BD10B50020CA49091F086006224FF4A5
:103C000000710220FFF78EFE0020C649C1F8A40112
:103C10000220FFF766FF0120C149091F086002204A
:103C2000FFF75FFF0020BF49C1F8A00110BD10B52C
:103C30000020BB49091F086006224FF400710220D2
:103C4000FFF770FE0120B749C1F8A4010220FFF779
:103C500048FF0120B249091F08600220FFF741FF19
:103C60000020B049C1F8A00110BD70B50546002480
:103C70000422D1010220FFF755FE002617E00020A4
:103C8000A749091F08600220FFF72BFF0120A54963
:103C9000C1F8A0016006040EA1488038006808B190
:103CA000601CC4B20120FFF71CFF701CC6B2082EB6
:103CB000E5DB15B9FFF7BBFF01E0FFF79AFF2046F0
:103CC00070BD10B500240422D1010220FFF72AFEA6
:103CD000012093490860FFF704FF01209149C1F8D2
:103CE000A001FFF7FEFE07E0601CC4B2FA2C03DD62
:103CF000FFF72CFF012010BD89488038006800289C
:103D0000F2D18749091F086000BFF4E770B5044687
:103D10000E46FFF700FF844800786F2803D1A220E9
:103D2000FFF73EFF02E0A020FFF73AFFFFF7C9FFD1
:103D30002546E11704EB11610912A4EB0121C8B279
:103D4000FFF72EFFFFF7BDFF3046FFF729FFFFF714
:103D5000B8FFFFF7FBFE4FF4FA50FFF7C2FE70BD4D
:103D600070B505460C46164606E021782846FFF752
:103D7000CDFF681C85B2641C3000A6F101018EB233
:103D8000F3D170BD70B504460026FFF7C4FE664847
:103D900000786F2803D1A220FFF702FF02E0A020E5
:103DA000FFF7FEFEFFF78DFF2546E11704EB1161DB
:103DB0000912A4EB0121C8B2FFF7F2FEFFF781FF61
:103DC000FFF7A9FE584800786F2803D1A320FFF71A
:103DD000E7FE02E0A120FFF7E3FEFFF772FF0020FD
:103DE000FFF743FF0646FFF7B1FE304670BD70B5E2
:103DF00006460C46154608E03046721C96B2FFF7A0
:103E0000C1FF04F8010B681E85B2002DF4D100201B
:103E100070BD10B5FFF7B6FE10BD08B520200090AC
:103E2000012269460020FFF79BFF08B9002008BD6A
:103E30000120FCE71CB583200190002000900122A6
:103E40006946FFF78DFF08B9FFF780FE012201A93F
:103E50000D20FFF785FF08B900201CBD0120FCE7FD
:103E60002DE9FC4704460D4616461F46DDE90B9A30
:103E7000DDF828808DF806408DF805508DF804A0F7
:103E80008DF803608DF802708DF801808DF8009038
:103E9000FFF7C3FF072269460220FFF761FF20B941
:103EA000FFF7C8FF0020BDE8FC870120FBE71CB539
:103EB0000446072269460220FFF799FFB0BB9DF830
:103EC00006008DF806009DF8050000F01F008DF833
:103ED00005009DF8040000F007008DF804009DF82F
:103EE000030000F03F008DF803009DF8020000F091
:103EF0003F008DF802009DF8010000F07F008DF872
:103F000001009DF8000000F07F008DF800009DF892
:103F10000600A0719DF8050060719DF8030006E0A1
:103F2000A481214200802142A10000200EE02071E6
:103F30009DF80200E0709DF80100A0709DF800005F
:103F400060709DF80400207000201CBD0120FCE77B
:103F500037B582B005460C4645B1122001900122CA
:103F600001A91046FFF7FCFE10B128E08020049064
:103F7000012C06D1012204A90920FFF7F1FED8B1D6
:103F80001DE0022C06D1012204A90A20FFF7E8FE59
:103F900090B114E0032C06D1012204A90B20FFF7F5
:103FA000DFFE48B10BE0042C06D1012204A90C204D
:103FB000FFF7D6FE00B102E0002005B030BD0120C1
:103FC000FBE710B5002211461046FFF7C1FF10BDF8
:103FD00070B50446FDA002F031F800258CE14FF4E5
:103FE0008051FE48FCF799FB4FF40061FB48FCF759
:103FF00096FB4FF40041FA48FCF791FB4FF48041E7
:10400000F748FCF78CFB4FF48061F548FCF785FB23
:104010004FF40061F248FCF782FB4FF48051F04806
:10402000FCF77DFB4FF40051ED48FCF776FB47F2BF
:10403000305000F08BFF4FF48051E848FCF76DFBE7
:104040004FF40061E548FCF768FB4FF40041E44899
:10405000FCF765FB4FF48041E148FCF760FB4FF44F
:104060008061DF48FCF75BFB4FF40061DC48FCF744
:1040700056FB4FF48051DA48FCF751FB4FF40051E6
:10408000D748FCF74AFB47F2305000F05FFF4FF48F
:104090008051D248FCF743FB4FF40061CF48FCF756
:1040A0003CFB4FF40041CE48FCF739FB4FF4804114
:1040B000CB48FCF734FB4FF48061C948FCF72FFB79
:1040C0004FF40061C648FCF72AFB4FF48051C44806
:1040D000FCF723FB4FF40051C148FCF71EFB47F2ED
:1040E000305000F033FF4FF48051BC48FCF717FB11
:1040F0004FF40061B948FCF710FB4FF40041B84899
:10410000FCF70BFB4FF48041B548FCF708FB4FF47C
:104110008061B348FCF703FB4FF40061B048FCF743
:10412000FEFA4FF48051AE48FCF7F7FA4FF4005115
:10413000AB48FCF7F4FA47F2305000F007FF4FF4B9
:104140008051A648FCF7EBFA4FF40061A348FCF756
:10415000E6FA4FF40041A248FCF7DFFA4FF4804141
:104160009F48FCF7DCFA4FF480619D48FCF7D7FAD2
:104170004FF400619A48FCF7D0FA4FF48051984808
:10418000FCF7CBFA4FF400519548FCF7C8FA47F218
:10419000305000F0DBFE4FF480519048FCF7BFFA3E
:1041A0004FF400618D48FCF7BAFA4FF400418C4897
:1041B000FCF7B3FA4FF480418948FCF7AEFA4FF4AC
:1041C00080618748FCF7ABFA4FF400618448FCF744
:1041D000A4FA4FF480518248FCF7A1FA4FF4005141
:1041E0007F48FCF79CFA47F2305000F0AFFE4FF4E6
:1041F00080517A48FCF793FA4FF400617748FCF756
:104200008EFA4FF400417648FCF789FA4FF480416A
:104210007348FCF782FA4FF480617148FCF77DFA2D
:104220004FF400616E48FCF778FA4FF480516C4807
:10423000FCF775FA4FF400516948FCF770FA47F241
:10424000305000F083FE4FF480516448FCF765FA6B
:104250004FF400616148FCF762FA4FF40041604896
:10426000FCF75DFA4FF480415D48FCF756FA4FF4D5
:1042700080615B48FCF751FA4FF400615848FCF745
:104280004EFA4FF480515648FCF749FA4FF400516A
:104290005348FCF744FA47F2305000F057FE4FF411
:1042A00080514E48FCF73BFA4FF400614B48FCF755
:1042B00036FA4FF400414A48FCF731FA4FF4804196
:1042C0004748FCF72CFA4FF480614548FCF727FA81
:1042D0004FF400614248FCF722FA4FF48051404805
:1042E000FCF71DFA4FF400513D48FCF718FA47F26D
:1042F000305000F02BFE6D1CA542FFF670AE70BD75
:1043000070B5044637A001F099FE0025E9E04FF4AE
:1043100080613348FCF701FA4FF400613048FCF744
:10432000FEF94FF480512E48FCF7F9F94FF4005193
:104330002B48FCF7F4F947F2305000F007FE4FF439
:1043400080612748FCF7E9F94FF400612448FCF745
:10435000E4F94FF480512248FCF7E1F94FF40051A1
:104360001F48FCF7DCF947F2305000F0EFFD4FF446
:1043700080611B48FCF7D3F94FF400611848FCF743
:10438000CCF94FF480511648FCF7C9F94FF40051AD
:104390001348FCF7C4F947F2305000F0D7FD4FF452
:1043A00080610F48FCF7BBF94FF400610C48FCF743
:1043B000B4F94FF480510A48FCF7AFF94FF40051BB
:1043C0000748FCF7ACF947F230500FE0C9CFCFC235
:1043D000D2BBC6F0B7B4D7AA000000000008014065
:1043E000000C0140CFC2D5FDB4AB000000F0AEFD23
:1043F0004FF48061FE48FCF792F94FF40061FC48ED
:10440000FCF78DF94FF48051F948FCF786F94FF429
:104410000051F748FCF783F947F2305000F096FD61
:104420004FF48061F248FCF77AF94FF40061F048EC
:10443000FCF775F94FF48051ED48FCF76EF94FF435
:104440000051EB48FCF769F947F2305000F07EFD6F
:104450004FF48061E648FCF762F94FF40061E448EC
:10446000FCF75DF94FF48051E148FCF758F94FF43F
:104470000051DF48FCF751F947F2305000F066FD7B
:104480004FF48061DA48FCF748F94FF40061D848EE
:10449000FCF745F94FF48051D548FCF740F94FF44B
:1044A0000051D348FCF739F947F2305000F04EFD87
:1044B0004FF48051CF48FCF732F94FF40061CD48FA
:1044C000FCF72DF94FF40041C948FCF728F94FF4E7
:1044D0008041C748FCF723F947F2305000F036FD21
:1044E0006D1CA542FFF613AF70BD70B5C2A001F000
:1044F000A5FD002414E00120FEF792FE002409E04F
:10450000002504E040F6B83000F020FD6D1C052DBC
:10451000F8DB641C322CF3DB0120FEF721FE641C67
:10452000012CE8DB70BD70B50446B7A001F086FD34
:104530000025D8E04FF48061AD48FCF7EEF84FF469
:104540000061AB48FCF7EBF84FF48051A848FCF74A
:10455000E6F84FF40051A648FCF7DFF847F2305078
:1045600000F0F4FC4FF48061A148FCF7D8F84FF458
:1045700000619F48FCF7D3F84FF480519C48FCF74A
:10458000CEF84FF400519A48FCF7C7F847F2305084
:1045900000F0DCFC4FF480619548FCF7C0F84FF464
:1045A00000619348FCF7BBF84FF480519048FCF74A
:1045B000B4F84FF400518E48FCF7AFF847F2305092
:1045C00000F0C4FC4FF480618948FCF7A8F84FF470
:1045D00000618748FCF7A3F84FF480518448FCF74A
:1045E0009CF84FF400518248FCF799F847F230509C
:1045F00000F0ACFC4FF480617D48FCF790F84FF47C
:1046000000617B48FCF789F84FF480517848FCF74B
:1046100084F84FF400517648FCF781F847F23050A7
:1046200000F094FC4FF480617148FCF778F84FF487
:1046300000616F48FCF771F84FF480516C48FCF74B
:104640006EF84FF400516A48FCF769F847F23050B1
:1046500000F07CFC4FF480616548FCF75EF84FF495
:1046600000616348FCF759F84FF480516048FCF74B
:1046700056F84FF400515E48FCF751F847F23050BD
:1046800000F064FC4FF480615948FCF746F84FF4A1
:1046900000615748FCF743F84FF480515448FCF749
:1046A0003EF84FF400515248FCF739F847F23050C9
:1046B00000F04CFC4FF480614D48FCF730F84FF4AB
:1046C00000614B48FCF72BF84FF480514848FCF749
:1046D00026F84FF400514648FCF721F847F23050D5
:1046E00000F034FC6D1CA542FFF624AF70BD70B520
:1046F000044648A001F0A2FC0025A5E14FF480513A
:104700003C48FCF70AF84FF400613A48FCF707F818
:104710004FF400413648FCF702F84FF4804134482A
:10472000FBF7FBFF4FF480613148FBF7F6FF4FF4D6
:1047300000612F48FBF7F3FF4FF480512C48FBF743
:10474000EEFF4FF400512A48FBF7E9FF47F23050E3
:1047500000F0FCFB4FF480512648FBF7E0FF4FF4DC
:1047600000612448FBF7DBFF4FF400412048FBF7D2
:10477000D6FF4FF480411E48FBF7CFFF4FF4806116
:104780001B48FBF7CAFF4FF400611948FBF7C5FF50
:104790004FF480511648FBF7C2FF4FF40051144804
:1047A000FBF7BDFF47F2305000F0D0FB4FF48051D3
:1047B0001048FBF7B4FF4FF400610E48FBF7AFFF62
:1047C0004FF400410A48FBF7A8FF4FF48041084826
:1047D000FBF7A3FF4FF480610548FBF7A0FF4FF400
:1047E00000610348FBF799FF4FF48051004817E040
:1047F000000C014000080140D5F0B6AFB5E7BBFAA8
:10480000D6B4D0D0D6D00000CFC2C3E6B7B4D7AAB2
:104810000A000000C9CFCFC2D2BBC6F0D7AA0000A1
:10482000FBF77DFF4FF40051F648FBF778FF47F2A6
:10483000305000F08BFB4FF48051F348FBF76FFFD3
:104840004FF40061F048FBF76AFF4FF40041ED4878
:10485000FBF763FF4FF48041EA48FBF760FF4FF43A
:104860008061E848FBF75BFF4FF40061E548FBF728
:1048700054FF4FF48051E348FBF74FFF4FF40051D2
:10488000E048FBF74CFF47F2305000F05FFB4FF47D
:104890008051DD48FBF743FF4FF40061DA48FBF736
:1048A0003CFF4FF40041D748FBF737FF4FF48041FE
:1048B000D448FBF734FF4FF48061D248FBF72FFF59
:1048C0004FF40061CF48FBF72AFF4FF48051CD48E9
:1048D000FBF723FF4FF40051CA48FBF720FF47F2D4
:1048E000305000F033FB4FF48061C648FBF717FFF0
:1048F0004FF40061C348FBF712FF4FF48051C148E9
:10490000FBF70BFF4FF40051BE48FBF706FF4FF4D7
:104910008051BD48FBF703FF4FF40061BA48FBF735
:10492000FCFE4FF40041B748FBF7F9FE4FF480411D
:10493000B448FBF7F4FE47F2305000F007FB4FF4A9
:104940008051B148FBF7E9FE4FF40061AE48FBF738
:10495000E4FE4FF40041AB48FBF7E1FE4FF4804129
:10496000A848FBF7DCFE4FF48061A648FBF7D7FEB2
:104970004FF40061A348FBF7D2FE4FF48051A148E9
:10498000FBF7CDFE4FF400519E48FBF7C6FE47F201
:10499000305000F0DBFA4FF480519B48FBF7BDFE2E
:1049A0004FF400619848FBF7BAFE4FF40041954878
:1049B000FBF7B5FE4FF480419248FBF7B0FE4FF491
:1049C00080619048FBF7A9FE4FF400618D48FBF72A
:1049D000A6FE4FF480518B48FBF7A1FE4FF4005127
:1049E0008848FBF79AFE47F2305000F0AFFA4FF4D8
:1049F00080518548FBF793FE4FF400618248FBF736
:104A00008EFE4FF400417F48FBF789FE4FF4804152
:104A10007C48FBF784FE4FF480617A48FBF77FFE09
:104A20004FF400617748FBF77AFE4FF480517548E8
:104A3000FBF775FE4FF400517248FBF770FE47F22A
:104A4000305000F083FA6D1CA542FFF657AE70BDE2
:104A500010B54FF480516C48FBF75FFE4FF40061D6
:104A60006948FBF75CFE4FF400416648FBF757FED0
:104A70004FF480416348FBF752FE47F2305000F09C
:104A800065FA4FF480516048FBF747FE4FF4006130
:104A90005D48FBF742FE4FF400415A48FBF73FFEEA
:104AA0004FF480415748FBF73AFE47F2305000F090
:104AB0004DFA4FF480515448FBF731FE4FF400613A
:104AC0005148FBF72AFE4FF400414E48FBF727FE02
:104AD0004FF480414B48FBF722FE47F2305000F084
:104AE00035FA4FF480514848FBF719FE4FF4006146
:104AF0004548FBF712FE4FF400414248FBF70DFE1C
:104B00004FF480413F48FBF70AFE47F2305000F077
:104B10001DFA4FF480513C48FBF701FE4FF4006151
:104B20003948FBF7FCFD4FF400413648FBF7F5FD33
:104B30004FF480413348FBF7F2FD47F2305000F06C
:104B400005FA4FF480513048FBF7E9FD4FF400615E
:104B50002D48FBF7E4FD4FF400412A48FBF7DDFD4B
:104B60004FF480412748FBF7D8FD47F2305000F062
:104B7000EDF94FF480512448FBF7D1FD4FF400616B
:104B80002148FBF7CCFD4FF400411E48FBF7C7FD61
:104B90004FF480411B48FBF7C0FD47F2305000F056
:104BA000D5F94FF480511848FBF7B7FD4FF4006179
:104BB0001548FBF7B4FD4FF400411248FBF7AFFD79
:104BC0004FF480410F48FBF7A8FD47F2305000F04A
:104BD000BDF94FF480510C48FBF7A1FD4FF4006183
:104BE0000948FBF79CFD4FF400410648FBF797FD91
:104BF0004FF480410348FBF792FD47F2305000F03C
:104C0000A5F910BD000C01400008014010B598A0A6
:104C100001F014FA27E020219848FBF764FD20B149
:104C200040219648FBF75FFD10B90120FFF7D0F94E
:104C300093A001F003FA20219048FBF754FD0128CE
:104C40000FD1934800F082F920218C48FBF74BFDEF
:104C5000012803D18FA001F0F1F905E0FFF7F8FE7C
:104C600001E0FFF7F5FED6E700BF1CE08CA001F0E5
:104C7000E5F940218148FBF736FD012810D11E20BF
:104C800000F064F940217D48FBF72DFD012803D198
:104C900086A001F0D3F907E00120FFF744FC02E011
:104CA0000120FFF740FCE1E700BF10BD2DE9F05FF8
:104CB00004460D4616461F467FA001F0BFF9A346E5
:104CC000A846B146BA4600F0EDF9FFF79FFF2CE089
:104CD0007CA001F0B3F9BE20FFF709FD00207D495B
:104CE00008600CE05020FFF71EFCFFF7FEFB502091
:104CF000FFF706FB77480068401C76490860754856
:104D000000680328EEDB02E00120FFF761F92021B3
:104D10005A48FBF7E8FC0028F6D06F4800F016F977
:104D20006E4801686EA001F089F96C48006858452A
:104D3000CEDBFFF76BFFB8F1000F03D04FF44870E4
:104D4000FFF7F1FB00206549086027E066A001F04D
:104D500075F94FF4B970FFF7CAFC00205D4908608F
:104D60000CE04620FFF7DFFBFFF7BFFB4620FFF715
:104D7000C7FA58480068401C564908605548006802
:104D80000328EEDB4FF4B970FFF722F95A4800F020
:104D9000DDF85248016859A001F050F94F48006809
:104DA0004045D3DBFFF732FFB9F1000F03D04FF4DA
:104DB000AA70FFF7B8FB0020484908601AE051A02C
:104DC00001F03CF940F24920FFF791FC4620FFF743
:104DD000AAFBFFF78AFB4620FFF792FA40F2492030
:104DE000FFF7F6F8444800F0B1F83C48016849A0E4
:104DF00001F024F9394800684845E0DBFFF706FF79
:104E0000BAF1000F03D04FF4FA70FFF78CFB0020CB
:104E1000324908601AE041A001F010F940F2163062
:104E2000FFF765FC4620FFF77EFBFFF75EFB4620A1
:104E3000FFF766FA40F21630FFF7CAF82E4800F086
:104E400085F82648016833A001F0F8F82348006887
:104E50005045E0DB012035490860354908600846C7
:104E600002683248016833A001F0E8F8BDE8F09F1D
:104E7000BBD8D4ADB5E3D6D000000000000C014093
:104E8000C9CFB2E3BBD8D4ADB5E3D6D000000000A3
:104E9000E0930400C9CFB2E3BBD8D4ADB5E30A00B8
:104EA000CFC2B2E3BBD8D4ADB5E30000CFC2B2E30A
:104EB000BBD8D4ADB5E30A00C2E4D2A9BFAACABC2C
:104EC0000A0000002041D2A9D6B4D0D0BFAACABCE3
:104ED0000A00000040000020F03262022C00002096
:104EE000413D25640000000042D2A9D6B4D0D0BF15
:104EF000AACABC0A00000000FF596202423D2564B4
:104F00000000000043D2A9D6B4D0D0BFAACABC0AC0
:104F100000000000433D25640000000044D2A9D6F3
:104F2000B4D0D0BFAACABC0A0000000030000020E4
:104F300038000020CFD6D4DAB5C4CAFDBEDDCAC75A
:104F4000623D256420683D256400000001B500BF76
:104F50000098401E00900028FAD108BD08B5012134
:104F60000420FBF7E9FD48208DF8030003208DF8AD
:104F700002000120ADF8000069464148FBF720FB24
:104F80000220ADF8000069463D48FBF719FB08BD5B
:104F900008B501210820FBF7CFFD28208DF803007C
:104FA00003208DF802002020ADF800006946354846
:104FB000FBF706FB4020ADF8000069463148FBF7DF
:104FC000FFFA4FF40040ADF8000069462E48FBF7A9
:104FD000F7FA4FF40040ADF8000069462A48FBF7A5
:104FE000EFFA08BD0EB501210846FBF7A5FD4FF409
:104FF000A060FBF789F901210846FBF79DFD4FF4FE
:10500000A060FBF781F900210846FBF7EFFB0120C8
:10501000019000208DF8080008208DF8090001207B
:105020008DF80A0001A8FBF7EBF906208DF80000C7
:1050300001208DF8010000208DF8020001208DF87C
:1050400003006846FBF765F90EBD10B50FA000F030
:10505000F5FF11480068401C0F49086008460168C8
:105060000EA000F0EBFF0E48FFF770FF0120FBF7EA
:105070003EFA10BD10B54FF48050FBF738FA10BD62
:1050800000080140000C014000100140BDF8C8EBD1
:10509000D6D0B6CF000000002C00002020256400F0
:1050A000E093040008B501210C20FBF745FD032027
:1050B0008DF8020010208DF803000002ADF800000A
:1050C00069464B48FBF77CFA4FF40060ADF80000EE
:1050D00069464748FBF774FA4FF40040ADF800000A
:1050E00069464448FBF76CFA4FF48040ADF8000085
:1050F00069464048FBF764FA4FF48060ADF8000061
:1051000069463C48FBF75CFA4FF40060ADF80000DC
:1051100069463848FBF754FA4FF48050ADF8000068
:1051200069463448FBF74CFA4FF40050ADF80000E4
:1051300069463048FBF744FA4FF480512C48FBF79E
:10514000EEFA4FF400612A48FBF7E9FA4FF4004108
:105150002848FBF7E4FA4FF480412648FBF7DFFAD2
:105160004FF480612348FBF7DAFA4FF400612148DD
:10517000FBF7D5FA4FF480511E48FBF7D0FA4FF4F5
:1051800000511C48FBF7CBFA08BD70B5044601215D
:105190001848FBF7C4FA0520FDF7E4FE002520E0DF
:1051A00001211448FBF7B9FA04F0010058B14FF49B
:1051B0001670FDF7BBFE01210E48FBF7B0FAC820C0
:1051C000FDF7B4FE0AE0C820FDF7B0FE0121094852
:1051D000FBF7A5FA4FF41670FDF7A8FE6410681CE3
:1051E000C5B2082DDCDB01210248FBF796FA70BD41
:1051F00000080140000C01402DE9F04105460E4633
:10520000174600240CE0285DFEF7ACFA022C05DB03
:10521000285DFF2802D15520FEF7A4FA601C84B255
:10522000B442F0DB012F0DD1FE480068FE49086052
:10523000002008710120487132462946FA4808309A
:1052400000F068FEBDE8F08110B5F748407901280C
:1052500022D1F5480079022817DAF3480068F149AD
:105260000968081AB0F5967F16D9EF48C188002260
:105270000830FFF7C1FFEB480068EB4908600846BB
:105280000079401C0871022010BD4FF48471E6487B
:1052900000F059FE0120F7E70020F5E770B5E24C79
:1052A0000834E24DE048407901280FD1217928796E
:1052B000401E81420AD160796979884206D14FF453
:1052C0008471D94800F03FFE002070BD0120FCE74A
:1052D00001B581B0694601AA50780870107848700D
:1052E000BDF900000CBD10B502460B460AB1002BFB
:1052F00001DC002010BD0024022103E0505C2044AA
:10530000C4B2491C581E8842F8DC2046F2E770B54A
:105310000546C74C802D04DDC6A000F08FFE00BFFF
:10532000FEE7CC4800F030FD8021C14800F00BFEC4
:105330004B21C94800F007FEFF20C749087048709C
:105340004720FFF7C5FFC44948800220087108467E
:10535000C2A10A6882604968C160C0A10A6802618E
:1053600049684161C0A10A6882614968C161C1A1FF
:105370000A680262496841622022C1A1283000F017
:10538000C9FD0020FFF7A4FFB349A1F84800C548B4
:105390000570FF20207060700520FFF799FF608086
:1053A000002020716071A0710021E17170BD10B505
:1053B000A84800F0F5FC002878D0BB480078002809
:1053C00074D10122B949A34800F00DFDB848007816
:1053D000FF280BD1B5480078FF2807D1B5490870E0
:1053E00048700220B4490880012010BDB048007800
:1053F000FF2809D1AD480078552805D1AB48007881
:10540000AB4908700120F0E7A8480078A949AA4AEA
:1054100012888854A8480088401CA7490880A348DF
:105420000078A3490870A4480088042806D1A14840
:10543000C178807801EB0020A04908809E4801884F
:105440009E480088001D814230D19C480288121D70
:105450009849764800F05EFD98480078001D734931
:1054600081F8000196A000F0E9FD002406E06F48F5
:10547000015D97A000F0E2FD601CC4B28F48008877
:10548000001D8442F3DB94A000F0D8FD8B48018816
:10549000091D884800F057FD01208349087000204D
:1054A00082490870824908709FE7FFE701209CE766
:1054B0003EB505465D4A07CA8DE807000620FFF79E
:1054C00007FF80B2ADF8020012208DF804008DF8BD
:1054D00008500A216846FFF706FF8DF809000022F0
:1054E0000A216846FFF788FE7CA000F0A7FD002493
:1054F00006E01DF8041076A000F0A0FD601CC4B208
:105500000A2CF6D374A000F099FD9DF8080001283C
:1055100004D0022806D003280CD107E072A000F0C6
:105520008DFD08E079A000F089FD04E07FA000F087
:1055300085FD00E000BF00BF3EBD3C4890F8000183
:105540000A383A49085C82490870384890F80001E6
:1055500009383649085C7F490870344890F80001E2
:1055600008383249085C7C490870304890F80001DE
:10557000C01F2E49085C794908702C4890F800013A
:10558000801F2A49085C76490870704710B50922C7
:105590002649744800F0BEFC0520FFF799FE7149CA
:1055A000488008460079401C087109216D48FFF7C2
:1055B0009AFE6C490872002209216A48FFF71CFE16
:1055C0001848016868A000F039FD002406E065482D
:1055D000015D3FA000F032FD601C84B2092CF6D3BF
:1055E0003DA000F02BFD09215E4800F0ACFC10BD91
:1055F000FFF7CCFF0B48046800BF0A480068001B97
:10560000B0F5167FF9D95CA000F018FD61A000F09C
:1056100015FD012080F3138800BF00BF62480068B9
:10562000C4E00000700000202D030020D8010020FD
:10563000490400205761726E696E672050305F4CDC
:10564000656E206F7574206F662072616E67650DE0
:105650000A000000CC000020D90200203030303099
:1056600030303034000000003032303330313030F0
:1056700000000000303230333030303200000000A3
:1056800065303035623432336636666334376538B8
:1056900039396666343064626336323038353833CF
:1056A000000000006D0000207D000020830000202D
:1056B00082000020C9040020800000207E0000201D
:1056C000474167656E74546F4D43553A20000000A2
:1056D00025327820000000000D0A0000204D4355BF
:1056E00020203A2000000000573244204572726F9B
:1056F0007220436F6D6D616E64202D3E4572726F36
:10570000725F41636B53756D0D0A00005732442080
:105710004572726F7220436F6D6D616E64202D3E15
:105720004572726F725F436D640D0A0057324420F8
:105730004572726F7220436F6D6D616E64202D3EF5
:105740004572726F725F4F746865720D0A000000D7
:1057500084000020850000208600002087000020B3
:1057600088000020240300205B25645D204D435504
:105770002020203A200000005732445F52657175A6
:1057800065737452657365744465766963652E2E1E
:105790002E0D0A004D435520526573746172742EAC
:1057A0002E2E0D0A000000000CED00E000F4E06079
:1057B000FE490843001DFE490860BFF3408F00BF4B
:1057C00000BFFEE710B5FB49FB4802680A6042686B
:1057D0004A6002890A81807A8872FFF7D7FEF7480B
:1057E000F7490860F349098908B2FFF771FD84B2EF
:1057F0002046F3490968884710BD70B5F14CEE4862
:10580000016821604068606004202071EE490978D9
:10581000881DFFF75DFD608003202072EA48007854
:1058200000F10A012046FFF75EFDE74909780931DA
:1058300022465054E448007800F10A010022204634
:10584000FFF7DAFCE1480168AFF2E40000F0F6FB94
:10585000002506E0615DAFF2881000F0EFFB681CE8
:1058600085B2D94800780A30A842F3D8AFF2981030
:1058700000F0E4FB70BD10B5FFF7BFFF10BD10B521
:105880000922CD49D24800F045FBD1484079D149A1
:1058900048714B21CF48FFF726FDCE4981F84A00D9
:1058A00000224B21CB48FFF7A7FCC8480168AFF2A4
:1058B000481000F0C3FB002407E0C648015DAFF2CA
:1058C000F01000F0BBFB601C84B24B2CF5D3AFF2A0
:1058D000F81000F0B3FB10BD2DE9F04105460C4671
:1058E00000270026FFF763FD00BFFFF7ADFCBA48B5
:1058F000007800286BD0B04890F80011FFF7F3FC57
:10590000AD4991F80011491EAB4A515C884208D05C
:105910000120FFF7CDFD0020AF4908700120BDE850
:10592000F081FFF7BBFC0746A34E30790C2837D037
:105930000CDC06282FD004DC012810D0032839D134
:1059400010E0072828D00A2834D128E00D2828D0D4
:105950000F2829D0112829D018282BD127E0FFF7AC
:105960008EFF2BE09448007A012802D002280FD144
:105970000BE0FFF70BFE22468F490931284600F065
:10598000C9FA01209549087003E0FFF774FF00E0B1
:1059900000BF00BF12E011E0FFF7F8FD0EE00DE0E0
:1059A0000CE0FFF70FFF09E0FFF722FE06E0FFF72C
:1059B000C4FD03E00220FFF77BFD00BF00BF7E486F
:1059C00090F8001100F0BFFA002083490870012010
:1059D000A5E73EB5FF208DF800008DF801000520F9
:1059E000FFF776FC80B2ADF802000B208DF80400C2
:1059F0007B4800788DF8050079480078401C78498C
:105A0000087000208DF8060000218DF8071009218C
:105A10006846FFF768FC8DF80800012209216846F6
:105A2000FFF7EAFB69480168AFF2C42000F006FB0B
:105A3000002407E01DF80410AFF26C3000F0FEFA0D
:105A4000601C84B2092CF5D3AFF2743000F0F6FA82
:105A50003EBD3EB50546FF208DF800008DF80100E3
:105A60000620FFF735FC80B2ADF8020009208DF862
:105A700004005B4800788DF8050059480078401C08
:105A80005749087000208DF8060000218DF8071096
:105A90008DF808500A216846FFF725FC8DF80900AB
:105AA00001220A216846FFF7A7FB48480168AFF2C8
:105AB000483000F0C3FA002407E01DF80410AFF2EC
:105AC000F03000F0BBFA601C84B20A2CF5D3AFF2C0
:105AD000F83000F0B3FA3EBD2DE9F04706460F4618
